{
  "contractName": "ScoreStore",
  "abi": [
    {
      "constant": false,
      "inputs": [
        {
          "name": "name",
          "type": "string"
        },
        {
          "name": "startingScore",
          "type": "int256"
        }
      ],
      "name": "AddPersonScore",
      "outputs": [],
      "payable": false,
      "stateMutability": "nonpayable",
      "type": "function"
    },
    {
      "constant": false,
      "inputs": [
        {
          "name": "name",
          "type": "string"
        }
      ],
      "name": "GetScore",
      "outputs": [
        {
          "name": "",
          "type": "int256"
        }
      ],
      "payable": false,
      "stateMutability": "nonpayable",
      "type": "function"
    }
  ],
  "bytecode": "0x608060405234801561001057600080fd5b506102cd806100206000396000f30060806040526004361061004c576000357c0100000000000000000000000000000000000000000000000000000000900463ffffffff168063308d196414610051578063fdb402b8146100ce575b600080fd5b34801561005d57600080fd5b506100b8600480360381019080803590602001908201803590602001908080601f0160208091040260200160405190810160405280939291908181526020018383808284378201915050505050509192919290505050610141565b6040518082815260200191505060405180910390f35b3480156100da57600080fd5b5061013f600480360381019080803590602001908201803590602001908080601f0160208091040260200160405190810160405280939291908181526020018383808284378201915050505050509192919290803590602001909291905050506101b5565b005b600080826040518082805190602001908083835b60208310151561017a5780518252602082019150602081019050602083039250610155565b6001836020036101000a0380198251168184511680821785525050505050509050019150509081526020016040518091039020549050919050565b600080836040518082805190602001908083835b6020831015156101ee57805182526020820191506020810190506020830392506101c9565b6001836020036101000a038019825116818451168082178552505050505050905001915050908152602001604051809103902054131561022d57600080fd5b806000836040518082805190602001908083835b6020831015156102665780518252602082019150602081019050602083039250610241565b6001836020036101000a03801982511681845116808217855250505050505090500191505090815260200160405180910390208190555050505600a165627a7a723058208ab72008d5a9b211989884be33b82e608c61bc9ae502d2acfaf117d0f487c0700029",
  "source": "pragma solidity ^0.4.4;\ncontract ScoreStore\n{\n    mapping(string => int) PersonScores;\n    function AddPersonScore(string name, int startingScore){\n        if(PersonScores[name]>0)\n        {\n            throw;\n        }\n        else{\n            PersonScores[name] = startingScore;\n        }\n    }\n    function GetScore(string name) returns (int){\n        return PersonScores[name];\n    }\n}\n",
  "sourcePath": "/Users/amirnabaei/Desktop/sites/Blockchain/demo/ScoreStore/contracts/ScoreStore.sol",
  "compiler": {
    "name": "solc",
    "version": "0.4.24+commit.e67f0147.Emscripten.clang"
  },
  "schemaVersion": "2.0.1",
  "updatedAt": "2018-08-01T17:27:48.166Z"
}